{
  "contractName": "Calculator",
  "abi": [
    {
      "constant": true,
      "inputs": [
        {
          "internalType": "uint256",
          "name": "x",
          "type": "uint256"
        },
        {
          "internalType": "bytes32",
          "name": "operator",
          "type": "bytes32"
        },
        {
          "internalType": "uint256",
          "name": "y",
          "type": "uint256"
        }
      ],
      "name": "calculate",
      "outputs": [
        {
          "internalType": "uint256",
          "name": "",
          "type": "uint256"
        }
      ],
      "payable": false,
      "stateMutability": "pure",
      "type": "function"
    }
  ],
  "bytecode": "0x608060405234801561001057600080fd5b50610288806100206000396000f3fe608060405234801561001057600080fd5b506004361061002b5760003560e01c80632860fc1714610030575b600080fd5b6100706004803603606081101561004657600080fd5b81019080803590602001909291908035906020019092919080359060200190929190505050610086565b6040518082815260200191505060405180910390f35b600060405160200180807f2b000000000000000000000000000000000000000000000000000000000000008152506001019050604051602081830303815290604052805190602001208314156100e057818401905061024c565b60405160200180807f2d0000000000000000000000000000000000000000000000000000000000000081525060010190506040516020818303038152906040528051906020012083141561013857818403905061024c565b60405160200180807f2a0000000000000000000000000000000000000000000000000000000000000081525060010190506040516020818303038152906040528051906020012083141561019057818402905061024c565b60405160200180807f2f000000000000000000000000000000000000000000000000000000000000008152506001019050604051602081830303815290604052805190602001208314156101ef578184816101e757fe5b04905061024c565b60405160200180807f5e000000000000000000000000000000000000000000000000000000000000008152506001019050604051602081830303815290604052805190602001208314156102475781840a905061024c565b600090505b939250505056fea265627a7a7231582067fa6c64e2c7765045b4b531b268ef1b7c7f94e5ad17f835bb99d93d9572749f64736f6c63430005100032",
  "source": "// SPDX-License-Identifier: MIT\npragma solidity >=0.4.22 <0.9.0;\n\ncontract Calculator {\n    function calculate(\n        uint256 x,\n        bytes32 operator,\n        uint256 y\n    ) public pure returns (uint256) {\n        if(operator == keccak256(abi.encodePacked(\"+\"))) {\n            return (x + y);\n        } else if(operator == keccak256(abi.encodePacked(\"-\"))) {\n            return (x - y);\n        } else if(operator == keccak256(abi.encodePacked(\"*\"))) {\n            return (x * y);\n        } else if(operator == keccak256(abi.encodePacked(\"/\"))) {\n            return (x / y);\n        } else if(operator == keccak256(abi.encodePacked(\"^\"))) {\n            return (x ** y);\n        } else {\n            return 0;\n        }\n    }\n}\n",
  "sourcePath": "/Users/a./WebstormProjects/client-server-app/contracts/Calculator.sol",
  "compiler": {
    "name": "solc",
    "version": "0.5.16+commit.9c3226ce.Emscripten.clang"
  },
  "schemaVersion": "3.4.16",
  "updatedAt": "2024-04-26T06:17:38.032Z",
  "networkType": "ethereum",
  "devdoc": {
    "methods": {}
  },
  "userdoc": {
    "methods": {}
  }
}